:020000020000FC
:080000000C9495000C944900DA
:040038000C943400F0
:04002C000C943E00F2
:100068000F934FB685FD03C08A9409F480624FBE92
:100078000F9118950F934FB6009181000A7F009356
:10008800810070624FBE0F9118954FB682608460F0
:100098004FBE1895F894A89504B7007004BF009156
:1000A800600008610093600000E0009360007894AD
:1000B8000895C9D2D0D2772788275A9A5B9A409A4E
:1000C800549A02E50CBD05E005BD02E004BD00E45C
:1000D80007BD00916E00026000936E0008E0009377
:1000E800810000E011E000938900109388000091DE
:1000F8006F00026000936F007894089500E3009306
:10010800B8000895F89400E00093C50007E600934E
:10011800C40006E00093C20008E10093C10078948F
:10012800089508E00EBF0FEF0DBFB4DFC2DFE6DFB2
:100138000E943802E7DF81D25FD19AD19DD1E4D104
:1001480030D07ED40410FBE0EEE42DD479D4050D34
:10015800FBE0EEE528D43DD180911001309BD5C05D
:10016800C0D0F0F3B1E0A0E029E0F4D31D932A95C4
:10017800E1F728E0EFD31C32E9F72A95D9F7B1E087
:10018800A9E026E0E7D31D932A95E1F759D4060E96
:1001980063D00ED0F6D3F7D322D030D04AD073D361
:1001A800DFCF0E94E104FBE0E0E20E94D70408955B
:1001B800B1E0A1E11D91D5D31C91D3D31AE3D1D3DA
:1001C800B1E0A2E024E032E01D91CBD32A953A9524
:1001D800D9F7222319F01AE3C4D3F5CF089526E0FE
:1001E800B1E0A9E032E01D91BCD32A953A95D9F740
:1001F800222319F01EE2B5D3F5CF089551D1FCE0C2
:10020800E2E05AD1B1E0A1E10D9118D10C9116D1DB
:100218000AE314D1B1E0A2E024E032E00D910ED15E
:100228002A953A95D9F7222319F00AE307D1F5CF91
:1002380008953AD1FCE0EAE03FD1B1E0A9E026E038
:1002480032E00D91FBD02A953A95D9F7222319F07F
:100258000EE2F4D0F5CF0895D1E0C1E1B0910001EC
:1002680000E3B01BB295A0910101A01BBA2B1B2F74
:1002780020910F0183FF08C0139517D0143209F499
:1002880011272A95C9F708C0112319F01A9517D014
:1002980001C013E22A95C1F71F93129501D01F914F
:1002A8001F7060E3160F199308950F9306E6100F59
:1002B80008F40F700DF4007F101B0F9108952F9311
:1002C8003F93212F312F2F702A3008F402C026E0E7
:1002D800121B3A3908F402C020E6121B3F912F91F5
:1002E800089538D31432E9F7F3E0EAE026E032D390
:1002F8003591132711F0089408952A95C1F7889429
:1003080008954750524D432C1A00C7D240D04FD0C1
:10031800E0D230D200E31C91112321F47F7E0E94A9
:10032800DB01F6CF1B3229F01D3231F4877F0C93A5
:1003380007C088600C9304C0B1D1133501F18860FF
:10034800B4D170FF15C07E7F74FF03C07F7E0E940A
:10035800DB0100911D0183FF04C00F3010F00EE097
:1003680000C00D3008F00CE000930F0110D0D0CF82
:100378008ED2FBE0EAEA0E94D7047061C9CF83D22B
:10038800FCE0E4E510D31CD0ADD223D0BECF73D2AD
:10039800FCE0E2E10E94D7041BE283FF1DE2E1D208
:1003A80010910F01C12FDD27B8D162D108950E94A5
:1003B8004704FCE0EEE10E94D7040E94EF04089590
:1003C8000FEF01BD02BD00910F018FD3082F8DD310
:1003D80008950FEF01BD02BD95D30F3F09F405E065
:1003E80000930F018FD30F3F19F000931001089568
:1003F800809310010895089593D020F02EE403D03F
:1004080008F008950895022F0093BB0004E80093B4
:10041800BC000091BC0007FFFCCF0091B900087F29
:10042800083111F488940895089408950F93007F73
:100438000FD00F910295007F0BD008950F93007F86
:10044800016006D00F910295007F016001D00895E8
:1004580080FB03F90F938BD00F910F93046087D023
:100468000F910B7F84D00895816008958E7F089541
:1004780002E0DCDFB3D0089501E0D8DFAFD0089503
:1004880008E0D4DF9CD008950CE0D0DF98D0089520
:1004980008E1CCDF94D008950CE1C8DF90D008952E
:1004A80000E8C4DF8CD0089500ECC0DF88D0089540
:1004B8000EECBCDF84D008950F9305910A3111F436
:1004C8000F9108950030C9F3B9DFF7CF0F93029564
:1004D80001D00F910F7010E3010F0A3310F017E0ED
:1004E800010FACDF08950AE3A9DF08951A95D4DF58
:1004F8001A95E9F7089500E2A1DF089513E000E2F4
:100508009DDF1A95E1F708950CE090DF0895CCDFA0
:10051800FBE0EEEDD1DFC4DFFBE0EEEDCDDF0895CB
:1005280004EA0093BC000091BC0007FFFCCF0091D7
:10053800B900087F083011F0003111F4889408954B
:100548000894089504EA0093BC000091BC0007FFDA
:10055800FCCF0091B900087F003111F48894089508
:1005680008940895089504E90093BC000895009341
:10057800BB0004E80093BC000091BC0007FFFCCF5F
:100588000091B900087F083211F4889408950894FE
:10059800089508E1802E8F7D089532E33A95F1F7AA
:1005A80008953BE43A95F1F708952DE0F6DF2A9592
:1005B800E9F7089524E6F1DF2A95E9F7089500E0C0
:1005C80011E000938900109388007F7D00918100DD
:1005D80005600093810075FFFECF089500E01CE1DF
:1005E80000938900109388007F7D00918100056049
:1005F8000093810075FFFECF089500E01EE400938C
:100608008900109388007F7D009181000560009328
:10061800810075FFFECF089506E01AE10093890076
:10062800109388007F7D0091810005600093810010
:1006380075FFFECF089525E001C02AE00E9410034F
:100648002A95E1F7089523E1B1E0A0E000270D9392
:100658002A95E9F7089510E10027B0E0A0E00D938E
:100668001A95E9F70895172D13D0162D0E94440303
:10067800152D0E9444030895162D0E944C03F8CFAF
:10068800312E12950E944C03132D0E944C0308959D
:100698001F7000E3100F0E94B5040895113620F072
:1006A8001B3710F48894104208957E7F622D6630BF
:1006B80068F40E946B0350F4B1E0ABE1DD93CD9395
:1006C800CC93DD2311F00FEF0C9371600895DD27B3
:1006D800CC27B1E0A3E11D910E94880368F4312E74
:1006E8000E94110468F0332D22270E94230440F051
:1006F8006A9589F7089408958894DD27CC2708958A
:100708000894DFEFCFEF0895312E105318F01A3008
:1007180008F408958894132D08953FEF732E739469
:10072800C051D742E0F7C05FD84D20EF205FC85EC8
:10073800D340E0F7C851DC4F632E6394C456D040D1
:10074800E0F7CC59622A20EF205FCA50E8F7C65F6D
:10075800522E5C2A0895312EA1DF105340F01A3032
:1007680028F017501A3018F0103108F40895132D96
:10077800889408953FD0EED01D30D1F4B1E0A3E1C4
:1007880072600895183141F4222D222399F30E94B2
:10079800D0042A95E1F7EECF183051F4222D222308
:1007A80051F32A95222E0E94D00400E00E93E3CF45
:1007B800193031F437E010E20DD03A95E9F7DBCF84
:1007C8001B3111F47460089521D073FF01C008959E
:1007D80001D0D1CF222D283009F408952395222E57
:1007E8001D93BFD008951D91103011F48894089579
:1007F800089408950027222428E0B1E0A3E10D938E
:100808002A95E9F7B1E0A3E1797F0895786010327D
:1008180018F01F3708F4777F08950E941F0450F0DE
:10082800DF932F91CF933F9106D020F004D010F0A2
:100838000E94230408958894CC1FDD1F0895C30FD8
:10084800D21F08950F930FEFA00FB01F0F910895B7
:100858003F936F93331B69E0111F6A9521F4232F8F
:100868006F913F910895331F321B18F4320F88940B
:10087800F3CF0894F1CF0E942405040F0BC00E9407
:100888002405080207C00E9424050A0203C00E942A
:1008980024050A2D0E94EF0408950E9424050201F0
:1008A8000E945B040F000E94240502010895FF9135
:1008B800EF91EE0FFF1FEE7F25913196F695E795A4
:1008C800EF93FF930E94EF040E94EA042A95D1F760
:1008D80008950E9443040E94EF04FBE0E2EA0E94AC
:1008E800D70408950E944B04FBE0E8EC0E94D7046B
:1008F8000E94AE0408951F93129501D01F911F7096
:1009080060E3160F1A3310F067E0160F0E94B50463
:10091800089524E60E942C04112311F00E94A104DA
:100928001AE01F932F931F912F910E942C040E946D
:10093800A1041F932F931F912F9110630E94B50458
:1009480008950091C00007FF03C01091C6000895E4
:10095800112708950091C00007FFFCCF1091C60031
:1009680008950091C00005FFFCCF1093C6000895BC
:1009780000D01F931DE00E94B5041AE00E94B50440
:1009880004C00E94C7041F9310E20E94B5041F917F
:1009980008951F931CE2F9CF1F930E94F4040E944C
:1009A800EF041F9108951F9315911A3111F41F91A7
:1009B80008951030C9F3D5DFF7CFFF93EF93FAE02E
:1009C800E8E90E94D704FAE0E2EA1DC0FF93EF933A
:1009D800FAE0E0E918C0FF93EF93FAE0E6EA13C003
:1009E800FF93EF93FAE0E4E90EC0FF93EF93FAE088
:1009F800EAEA09C0FF93EF93FAE0E0EB04C0FF9343
:100A0800EF93FAE0E4EBCFDFEF91FF910895FF93C6
:100A1800EF93FAE0EAEBF7CFFF93EF93FAE0EEEB10
:100A2800F2CFFF93EF93FAE0E0ECEDCFFF93EF9373
:100A3800FAE0E8ECE8CFFF93EF93FAE0ECECE3CFD1
:100A48000E940B05FF91EF918894EE1FFF1F1591EF
:100A58000E948D040E94100515910E948D040E9429
:100A680015058894F795E795EF93FF9308950E94ED
:100A78000B051D2F0E948D040E9410051C2F0E943B
:100A88008D040E94150508951B5B421A1B5B441ACE
:100A98001B5B481A1B5B304A1A001B5B4A1A1B5B1C
:100AA8004B1A1B5B316D1A001B5B6D1A1B5B376D94
:100AB8001A001B5B1A003B1A481A1B5B314D1A00BF
:100AC8001B371A001B381A00F999FECFD2BDC1BDD9
:100AD80000BDF894FA9AF99A78940895F999FECF96
:100AE800D2BDC1BDF89A00B50895F999FECFC1B538
:100AF800D2B52196C1BDD2BD00BDF894FA9AF99A33
:100B080078940895F999FECFC1B5D2B52196C1BDA3
:100B1800D2BDF89A00B5089520203D3D3D3D3D3DAC
:100B28003C3C3C206D3332382D4750532D636C6F5D
:100B3800636B206D6F64756C65203E3E3E3D3D3DA8
:100B48003D3D3D0D0A1A54696D6520202020202066
:100B580020446174651A3D3D3D3D3D3D3D3D3D3D73
:100B6800203D3D3D3D3D3D3D3D3D3D1A2D2D2D2D2D
:100B78002D2D2D2D2D2D2D2D2D2D2D2D2D2D2D2D9D
:100B88002D2D2D2D2D2D2D2D2D2D2D2D2D2D2D2D8D
:100B98002D2D2D2D2D2D2D2D1A00456E7465723A93
:100BA800201A20202A2A2A20556E7265636F676EE4
:100BB800697A656420496E70757421202A2A2A1A78
:100BC8002020537472696B6520616E79206B65799A
:100BD800202D2D3E201A20202020202020202020DB
:100BE80020202020202020202020202020202020FD
:100BF80020202020202020201A0054696D653A20EA
:100C08001A00446174653A201A00545A206F6666C7
:100C18007365743A201A2A2A2A20456E7465722050
:100C28006E657720545A206F66667365742C202D84
:100C3800313220746F202B31342C20275327207415
:100C48006F2073617665202A2A2A1A002A2A2A2008
:100C5800536176696E6720746F20454550524F4D39
:060C6800202E2E2E201AA2
:00000001FF
